:020000040020DA
:1000000002200E889000F5DA12000D747810EC4D85
:100010004E4F70047CA57DA5C3EC13FCED13FDEEE3
:1000200013FEEF13FF5010EC64CCFCED644CFDEEBE
:10003000644EFEEF64CEFFD8DF9000F5DA12000DBB
:10004000B5EE547FFE229000F5DAEEF0EFA3F0A3B8
:1000500074A5F0A3F0220000000000001000800052
:1000600000805F9B34FB00000000000000000000E7
:1000700002274FBC00000000022795B902279519FE
:1000800002235763022666042207FF220222236E00
:10009000022156BE02243D4CC0E0F5E0C0E09000D5
:1000A000F638E06401700975E00215E070FC802408
:1000B0009000F638E06402700975E01415E070FCF9
:1000C00080129000F638E06403700975E03015E0A6
:1000D00070FC8000D0E0E5E0D0E02230303030002D
:1000E00000000000000000000000002202246BBDA0
:1000F00000000000220000000000000000000000DE
:1001000000000000000000000000000000000000EF
:1001100000000000000000000000000000000000DF
:1001200000000000000000000000000000000000CF
:100130000000000000000000000000000000004D72
:100140004147494302279829E09028FE00F103091E
:100150000000F3010AF40401000004F203090001A5
:10016000F3023506F40619110E19110FF2030900F6
:1001700004F3023510F41035061901000900173593
:1001800006190017090104F203090006F3023509F4
:10019000F40909656E09006A090100F20309000902
:1001A000F3023508F408350619110E090106F203A9
:1001B000090100F3022508F4084156524350204338
:1001C00054F203090102F3022504F4044D4348509C
:1001D000F203090311F30109F4020001FFE08D2885
:1001E000FE90F103090000F3010AF4040100000588
:1001F000F203090001F3023503F40319110CF203B1
:10020000090004F3023510F4103506190100090045
:10021000173506190017090104F203090006F30255
:100220003509F40909656E09006A090100F203093C
:100230000009F3023508F408350619110E09010604
:10024000F203090100F3022508F408415652435015
:10025000205447F203090102F3022504F4044D433C
:100260004850F203090311F30109F4020002FF50A0
:10027000DD2F55E405D2AF9FA98FE54A7DFE43539C
:10028000534942DBE7001053DC9818A2001696246D
:1002900047C62361BAD94B4D1E4353534942DD2B08
:1002A000001350DBB816962447C62361BAD94B4DCC
:1002B0001E4353534941DD2E0042DBB6000142DCB0
:1002C000AB000042DD3F000253DC1C0CA500B39BD9
:1002D0007234BEECD4A8F44341884353534942DD01
:1002E00029001350DBA6B39B7234BEECD4A8F443B0
:1002F00041884353534941DD2D0042DBA4000153A3
:10030000DBD41CA7007E3B07FF1C51492FB3398A61
:100310004C4353534942DBF8001350DCB77E3B0794
:10032000FF1C51492FB3398A4C4353534941DBFADF
:100330000042DCB5000142DBF3000042DBFB0002BF
:10034000605ADC3EF10ADD2FDBE700100001F0EA25
:10035000DC98DD2B00130001DBB8DD2EDBB600F7E7
:100360000D10F0E8DCABDD3F00022111F0EADC1CEF
:10037000DD2900130001DBA6DD2DDBA400F70D1045
:10038000F0EADBD4DBF800130001DCB7DBFADCB504
:1003900000F70D10F0E8DBF3DBFB0002211148DC75
:1003A000AD0000DC3E00A000A841EE6C0044EE660B
:1003B0000000000047EE7020434C43433A2041EEDA
:1003C000778241EE6D006042EE78FF00FF0102028D
:1003D00003030404050506060707080809090A0AB5
:1003E0000B0B0C0C0D0D0E0E260F290F10101711F4
:1003F0001A121D1323142415FF16FF17FF18FF19D7
:10040000FF1AFF1BFF1CFF1DFF1EFF1F6020C4A95A
:10041000009300010096000100A3000100A8000164
:1004200000C5000100F3000100F7000100FA00011F
:1004300041EDBF0041EDE60042F36700F041F36596
:100440000041F3640041F35F0041F35E0041F35D5E
:100450000042F15D000043F1AB00000043F2A9004F
:10046000000043F2AC00000041F3740141D12200CE
:1004700041D1250141D25A0041D25B0041D2560000
:1004800041D1163341CBF50042CBFB000042DE8D5B
:100490000A1842DEA1000245DEB202D200292A4239
:1004A000DED6000542DFC3292A44DEE24D43485030
:1004B00042DFC1000445DEC002D400242A42DEEC43
:1004C000000542DE91242A44DEEE424D383342DEFE
:1004D0008F000445DEAD02D600252A42DED4000599
:1004E00042DFBF252A44DEDE3030303042DFBD003F
:1004F0000445DEA802D800272A42DEC7000542DFF5
:10050000B3272A46DED84254424D383342DFB10089
:100510000645DEA302DA00262A42DEC5000542DFD8
:10052000AF262A46DECE31303030303342DFAD00E8
:100530000645DEBB02DC00282A42DEE6000542DE7C
:100540008B282A44DEE83030303042DE8900044512
:10055000DEC902DE00232A42DFAB000542DE9F2314
:100560002A48DFB5000000000000000042DE9D00C8
:100570000845DFA402E0002A2A42DE93000542DE9D
:10058000B92A2A48DE95000000000100000042DE82
:10059000B7000860AADEF2F10ADE8DDEA1000200DB
:1005A00001F0EADEB2DED600050001DFC3DEE2DFE5
:1005B000C100F70A01F0EADEC0DEEC00050001DE52
:1005C00091DEEEDE8F00F70A01F0EADEADDED40048
:1005D000050001DFBFDEDEDFBD00F70A01F0EADE65
:1005E000A8DEC700050001DFB3DED8DFB1000600DA
:1005F00001F0EADEA3DEC500050001DFAFDECEDFDD
:10060000AD00060001F0EADEBBDEE600050001DE1B
:100610008BDEE8DE8900F70A01F0EADEC9DFAB0015
:10062000050001DE9FDFB5DE9D00080001F0EADF76
:10063000A4DE9300050001DEB9DE95DEB7000800F8
:100640000148DF9C0000DEF200D000E050E2A7C2CB
:10065000EA3379AFA9CD83244CE087435353494211
:10066000E2F9001053E2CF9AF20045106CF2B7168F
:10067000219670445CB74353534942E36B001350D7
:10068000E26645106CF2B716219670445CB743538E
:10069000534941E3800042E369025842E2F5000019
:1006A00042E381000244E2A30100002942E2F70094
:1006B0000453E36D18F6003F6A776644F021B5777E
:1006C00049B64B4353534942E264001350E2923F10
:1006D0006A776644F021B57749B64B435353494195
:1006E000E2890042E262000142E383000042E28AC2
:1006F000000253E2761AF900786D43F61088DE9412
:10070000A345D12D4353534942E290001350E2E5F3
:10071000786D43F61088DE94A345D12D4353534999
:1007200041E2A20042E28E000142E28C000042E27D
:10073000B70002606EE2FBF10AE2A7E2F9001000E6
:1007400001F0EAE2CFE36B00130001E266E380E32D
:100750006900F71F11F0E8E2F5E38100022111F1D1
:1007600008E2A3E2F700040011F0EAE36DE264009E
:10077000130001E292E289E26200F70D10F0E8E373
:1007800083E28A00022110F0EAE276E29000130090
:1007900001E2E5E2A2E28E00F70D10F0E8E28CE261
:1007A000B70002211148E25A0000E2FB00F000FA13
:1007B00050E848E4A581502997F0FC1A44D5044339
:1007C00053534942E87B001053E8CB02C20032A2E7
:1007D0003EF5B468DFDB483927984353534942E874
:1007E00045001350E86B32A23EF5B468DFDB4839B0
:1007F00027984353534941E8470042E869000153B1
:10080000E8DE18C400EDFDAD23D3EEDAE5276CE396
:10081000954353534942E858001350E87FEDFDAD2E
:1008200023D3EEDAE5276CE3954353534941E85A65
:100830000042E87D000142E8F9000042E85B000266
:10084000603CE88FF10AE848E87B00100001F0EA1C
:10085000E8CBE84500130001E86BE847E86900F7DA
:100860000E01F0EAE8DEE85800130001E87FE85ADC
:10087000E87D00F70D10F0E8E8F9E85B00022111CF
:1008800048E8F10000E88F00C000C541F63800429A
:10089000E81A2CFE42E831000245E7831892003442
:1008A0001242E808000542E81E341241E8120042F4
:1008B000E81C000142E78B000042E817000245E80F
:1008C00020189500351242E842000542E78F3512A4
:1008D00041E8440042E78D000142E82D000042E774
:1008E00081000245E833089800361242E788000587
:1008F00042E815361241E78A0042E8130001605AC7
:10090000E7ABF10AE81AE83100020001F0EAE783F8
:10091000E80800050001E81EE812E81C00F70910CD
:10092000F0E8E78BE81700022011F0EAE820E8423F
:1009300000050001E78FE844E78D00F70910F0E8B3
:10094000E82DE78100022011F0EAE833E78800058E
:100950000001E815E78AE81300F7091048E80A00E3
:1009600000E7AB0090009841DADE006030DAE1A8E1
:10097000B1E4A8B19AA8B1D4A8B186A8B1C1A8B170
:100980006FA8B1ABA8B155A8B148A8B0FEA8B138BE
:10099000A8B0EAA8B125A8B0D3A8B10FA8B0B941B2
:1009A000D9DF0041D9E00041D9E10041D9E201415C
:1009B000D9E30041D9E40041EEBA0044EEBB0000A7
:1009C000000042F0FE001842F0FA011842F10A005D
:1009D0002842F10C012842F0F6022842F0EA0328EE
:1009E00042F108002942F0F4012942F0E8022942CC
:1009F000F0EE032942F0EC042942F0E6052942F129
:100A000002002A42F0F0012A42F0F8042A42F100E2
:100A1000052A42F0F2A62A42F10EC92A42F0FC2928
:100A20002B42F1062A2B42F1043A2B50F2450000EA
:100A3000000000000000000000000000008742E409
:100A400099000245E3970A0300002A42E4470005A3
:100A50006020E4514254353531315F53444B00003E
:100A60000000000000000000000000000000000086
:100A70000000000042E48A000A45E47B0205000110
:100A80002A42E495000542E497000042E395000203
:100A900045E3CA020700042A42E471000548E473F2
:100AA0000800000A02010D0042E493000845E485B5
:100AB000020900A62A42E4A0000541E3850042E3C2
:100AC000A0000145E480020B00C92A42E49D000514
:100AD00041E49F0042E39E0001606EE3CFF10AF023
:100AE000FEE49900020001F0EAE397E44700050004
:100AF00001F102E451E48A00201B11F0EAE47BE4F6
:100B00009500050001F0F0E497E39500020001F084
:100B1000EAE3CAE47100050001F0F8E473E493002D
:100B2000080001F0EAE485E4A000050001F0F2E32A
:100B300085E3A000010001F0EAE480E49D000500E7
:100B400001F10EE49FE39E0001000148E44900002A
:100B5000E3CF0001000B42E491000245E48C201237
:100B600000052A42E386000544E3880100FFFF42B6
:100B7000E43D000442E49B000042E39C0002602844
:100B8000E3A2F10AF0FAE49100020001F0EAE48C39
:100B9000E38600050001F100E388E43D0004000065
:100BA000F0E8E49BE39C0002201148E43F0000E3EE
:100BB000A20010001341F3C90043F3CE000103412A
:100BC000F3C60041F3C70041F3C80041F1C3005030
:100BD000EAD5666DD038E26F4AA483CCD0C94343CE
:100BE000534942EA60001053EA651832001803A620
:100BF000285ED8EC911C48A3AC4353534942EAD039
:100C0000001350EAFA1803A6285ED8EC911C48A3FA
:100C1000AC4353534941EAD20042EAF8000142EAA8
:100C2000C6000042EAD3000253EAE50435004F84CF
:100C3000F610761AD4BD4941E4184353534942EAA9
:100C400062001350EAB64F84F610761AD4BD4941BB
:100C5000E4184353534941EA640042EAB400016096
:100C60003CEA78F10AEAD5EA6000100001F0EAEA0D
:100C700065EAD000130001EAFAEAD2EAF800F70DBB
:100C800010F0E8EAC6EAD300022111F0EAEAE5EA48
:100C90006200130001EAB6EA64EAB400F70D1048F6
:100CA000EAC80000EA780030003544E10100330072
:100CB000010041F64400C2D530F707B2D563F0FF1A
:100CC00005F030E70DB2D5F404008463F0FF05F0C1
:100CD00080018430D502F40422BC000BBE0029EF51
:100CE0008DF084FFADF022E4CCF875F008EF2FFF13
:100CF000EE33FEEC33FCEE9DEC984005FCEE9DFEE1
:100D00000FD5F0E9E4CEFD22EDF8F5F0EE008420F9
:100D1000D21CFEADF075F008EF2FFFED33FD40075C
:100D2000985006D5F0F222C398FD0FD5F0EA22C202
:100D3000D5EC30E709B2D5E4C39DFDE49CFCEE3070
:100D4000E716B2D5E4C39FFFE49EFE12200CD9C380
:100D5000E49DFDE49CFC800412200CD930D507C32F
:100D6000E49FFFE49EFE22F8EB700C09E5F027C734
:100D7000F5F019E837C72289828A831410E707F54E
:100D800093E802000B1FF593E4740193F5F0E493EC
:100D900022BB000B09C5F027F7C5F01937F722F879
:100DA000EB89828A831410E707F593E802000B09A8
:100DB000F59374019325F0F5F0E4933822EB700677
:100DC000E9F802200E2C89828A831410E706F59335
:100DD00002000D9CF59302200E397401FF3395E05B
:100DE000FEFDFCA3A3A3E0CF2FF0E58215827002E5
:100DF0001583E0CE3EF0E582158270021583E0CDCA
:100E00003DF0E582158270021583E0CC3CF022EBC8
:100E10007006E9F802200E4989828A831410E706D9
:100E2000F59302000DD9F59302200E52E6FB08E679
:100E3000F908E6FA08E6CBF822E493F8740193F98E
:100E4000740293FA740393FB22E6FB08E6FA08E6C1
:100E5000F922E493FB740193FA740293F9220227B6
:100E60007130E493A3F85407240CC8C333C4540F5F
:100E70004420C8834004F456800146F6DFE4800C29
:100E8000010204081020408090200148E47E019374
:100E900060CCA3FF543F30E509541FFEE493A360E8
:100EA000010ECF54E0B4E029E493FBA3E493FAA34A
:100EB000E493F9A3E493C083C08212000AE375931C
:100EC00020D082D083A309E970010ADFE7DEE58044
:100ED000BB54C025E0602B4089E493A3FAE493A3BC
:100EE000F8E493A3C8C582C8CAC583CA759300F045
:100EF000759320A3C8C582C8CAC583CADFE3DEE1F3
:100F0000808AE493A3F8E493A34003F68001F208F7
:100F1000DFF402200E8CA863B70004D104A87CD5AE
:100F20000001B701A85E5400019E47A8859000010A
:100F30009E69A885A700019EBAA85E7B00019ED18C
:100F4000A853DD0001587DA85EA20002BA8CA7CC90
:100F5000CC0003D495A860DD000140AEA782230039
:100F6000032D73A811270003EBF7A6A18400047AD0
:100F700035A88F5B000324C2A87CF10000100FA7E6
:100F8000F6530002830BA88F6C000396B6A88F7DE2
:100F900000039797A88224000486D1A88CC7000478
:100FA0004D67A82C6C0001B5AAA81CF700017A0AAD
:100FB000A7DC3300036114A8925400008D66A77665
:100FC00086000288E1A843C60003B920A7FFA60057
:100FD0000151A2A85AF10004E099A7C7C100026715
:100FE00072A6C3AD0001BE52A7DF5E000320A2A817
:100FF0008B220002CB01C10300000020011001136D
:101000000114C10102252075022654DC00000000F5
:1010100000000000022788EA0227307902262A1001
:101020000225EBB80226B7AF022689A00224E8AB5E
:1010300002210868022248F80227525102257B64E7
:101040000223E9DE0223A7AE0226CAC80221AC545D
:101050000226D0740223955802265C5F022712AE46
:101060000226928802273A6E02266B7002274EAE45
:10107000022637080225F57202265F27022687928C
:1010800002257A9A022563350227570B0224B3B84A
:101090000000000000000000000000000000000050
:1010A0000000000000000000000000000000000040
:1010B0000000000000000000000000000000000030
:1010C0000000000000000000000000000000000020
:1010D0000000000000000000000000000000000010
:1010E0000000000000000000000000000000000000
:1010F00000000000000000000000000000000000F0
:1011000000000000000000000000000000000000DF
:101110003F65098601000A0004781D35330D0D1363
:1011200005447F5024405030000220404014080005
:1011300016200A1016201E0F0F5555160A540B04C0
:1011400012000010120700000319FF40F07F40005A
:101150000077015E00F001E000C8204E0000483931
:101160003024201812600000000000000000000081
:10117000000000000000000000000000000000006F
:10118000000000000000000000000000000000005F
:10119000000000000000474650424D38335F4D5379
:1011A000504B323000000000000000000000000042
:1011B00000000000000000000000000000002222EB
:1011C0002222222222222222222222222222000043
:1011D000000000000000000000000000000000000F
:1011E0000000000000000000000000000000424D70
:1011F00038335F4D53504B32300000000000000088
:10120000000000000000000000424C455F424D38E5
:101210003353444B0006FF022705010300000D0A6B
:101220000D0A2A2B9000C6461220A8F77EC67F49D9
:101230007B11FD1200004F1220A487FF12209FFE99
:10124000E012000E6812730214DE0317060418E0A1
:101250000519550619C60A1BD40D1E110E1C1C0FAC
:101260001C49131D18151E7B161DA2171E7B180086
:10127000001E67EF2405FFE43E12201F54EF1220EA
:10128000A486FF1220A66E12209FC2640160030193
:1012900014678F821220A000A3E0600301139F1245
:1012A00020A9B07003011E7B1220A85260171220E3
:1012B000A2929000C6461220A0551220A65BFD7B8C
:1012C00016022797811220A2929000C6461220A0F3
:1012D000551220A65BFD7B187ACC12269354900001
:1012E000C64612209FFA1220A65CFD9000C6481246
:1012F00020A0791220A1761220A7381220A0F61281
:1013000020A1A812209FC2640170097B02FA7D10FF
:101310001225D68B9000C6481220A0791220A1A8D1
:10132000F58375930074021220A6CF74021220A0D8
:10133000D712201E7C9000C651F01220A1721220FC
:101340009FC21220AA48EF1220A5A81220A8CAAD59
:1013500082FC7EC67F577B03120012109000C6529B
:101360007401F09000C65504F0E4A312201F2690EB
:1013700000C648E01220A17212209FC2FCA3E0FD2B
:101380001220A2921226D2721220A9F870091220FD
:10139000A9B87003011E7BE4FD7F0302268B431274
:1013A00020A5D31220A059A3A3E024FE603624FE7A
:1013B0006003011E7B1220A7E764047003011E7BFB
:1013C000EF1220A1A41220A47F1220A8157402F00D
:1013D0007EC67F4BED2405FDE43C12201EA2A374C3
:1013E000040119511220A9231220A21CFE9000C64C
:1013F0005AF0A3EFF012201F411220A40370030142
:101400001E7B1220A1A312209FC26403703590009E
:10141000C6481220A0791220A1A81220A47F122071
:10142000A815740A1220A0D712201ECA9000C64B1D
:10143000F09000C64612209FFAA3E09000C64C121E
:10144000201F2612201EDD7402F07EC67F4B900006
:10145000C65BE02403FD9000C65AE0340012201E53
:10146000A2A374020119511220A4871220A66E12A1
:10147000209FC2600764026003011E7B1220A5D377
:101480001220A059A3A3E06003011E7B1220A7E74E
:1014900064047003011E7B1220A1C51220A65BFD0F
:1014A000EF1220A3771220A7381220A0F61220A353
:1014B0003012209FC254F91220A0F61220A330123D
:1014C000209FC212201EFD1220A7B524051220A2C3
:1014D0001B12201F149000C65774010119511220CD
:1014E000A9231220A21C12201F541220A5D18C83E4
:1014F0001220A67012209FC26401600301163012F0
:1015000020A9B070111220A292ED2402FDE43CFC4F
:101510007B0D0225FACF9000E24DE020E76E30E42B
:101520006B7EC67F5C1226634BE49000C65BF09036
:1015300000C65CE0FE9000C65BE0FFC39E50267CC8
:10154000C67D5D1225D1EB1220A9231220A21CFE1C
:101550007CC67D5F7B06120011CD50099000C65BF2
:10156000E004F080CA9000C65CE0FF9000C65BE03B
:101570006F70191220A87C60131220A20EFC7B133E
:101580001225FACF1220A7E70225E196E4FF1227E1
:1015900079F89000C65AEFF01220A8B9402F9000B9
:1015A000E24DE020E71830E4151220A87C600F120D
:1015B00020A20EFCE49000C6B5F07B01804512200D
:1015C000A20EFC9000C6B57401F0FB80369000E2DC
:1015D0004DE020E71C30E4191220A87C6013122093
:1015E000A20EFC9000E259E0FBE49000C6B5F0804A
:1015F000121220A20EFC9000E259E0FB9000C6B54A
:101600007401F012270D039000C648E01220A8CA0A
:10161000AF82FE9000C647E024081220A21BFC7B8C
:1016200003120012101220A19FF5831220A3E322BF
:101630001220A4871220A66E12209FC260076402A7
:101640006003011E7B1220A9B0700B1220A20EFCB9
:101650007B0D0225A4757EC67F5B1220A21412208A
:101660001F309000C6611220A6639000C66512204C
:10167000A6639000C66D1220A8279000C6481220CD
:10168000A0791220A86612209FC26402702F122037
:10169000A95430E115EF1220A51212209FC230E3A9
:1016A000091220A9C0740DF080071220A9C0740887
:1016B000F09000C66BE4F0A37463F080311220A9AF
:1016C0005430E1199000C6481220A51112209FC283
:1016D00030E30A9000C6691220A82B80071220A9C7
:1016E000C07407F09000C66BE4F0A37460F078B2A9
:1016F0007CC67D017B017AC6795B7E007F15122056
:10170000A28E02259DD39000C64612209FFA122079
:10171000A3F87003011E7B9000C64612209FFA12A8
:1017200020A71E9000C648E0FD1220A37712209F3C
:10173000C2FAA3E06F7002EA6E60030117D2900054
:10174000C6481220A0791220A33012209FC254F95B
:101750001220A0F61220A33012209FC21220A6CF82
:101760007403F0ED1220A0D912201E7CFF9000C659
:1017700051F0E49000C6571220A0F61220A4EA12FD
:10178000209FC2640170079000C648E0801490005A
:10179000C6461220A36112209FC26408701B12204B
:1017A000A7E71220A43712209FC254FE1220A0F6F1
:1017B0001220A43B12209FC2F09000C6481220A025
:1017C000791220A37B1220A5EEA3F01224FF0F01B3
:1017D0001E739000C64612209FFA1220A71E90008A
:1017E000C648E01220A17212209FC2FCA3E06F70D5
:1017F00002EC6E6003011E7B1220A7E712209FB748
:101800009000C65A1220A6CF74021220A0D7122030
:101810001E8F9000C651F01220A17212209FC2129A
:1018200020AA48A3EF1220A8D99000C6461220A3F0
:101830006112209FC29000C656F064086003011830
:10184000D51220A77EF4601F9000C6481220A27710
:1018500012209FC2FEEFB5060E9000E24FE4FD128B
:101860002607041220A7859000C65AE07003740F63
:10187000F09000C648E01220A0D97EC67F5B1220FF
:101880001F0A9000C65AE0FE9000C6481220A079B8
:101890001220A25E1220A42FF01225E1969000C61D
:1018A000481220A0791220A2B0F5831220A3E39061
:1018B00000C65AE0FEEF1220A25A1220A42F1220D6
:1018C000A5A91220A0D9AF82FE7CC67D5B7B061243
:1018D00000121080081220A7E71225E196011E735E
:1018E0009000C64612209FFAA3E0FF6405600DEF4A
:1018F00064186008EF64136003011E7B9000C64605
:1019000012209FFA1220A3F87003011E7B9000C6DC
:101910004612209FFAA3E064189000C6487019E0B0
:101920001220A17212209FC2FCA3E0FD1220A292FD
:101930007B161227978180091220A1A31220A47F71
:10194000F01220A5A01220A0D912201EEF1220AA6A
:1019500052F0011E739000C647E02403FF1220A23C
:101960001CFE1226EEF71220A4037003011E7B1248
:1019700020A487FF12209FFEA3E070201220A8164B
:101980007404F0EF2402FFE43E9000C64CF0A3EF95
:101990001220A5A99000C64BF0011E739000C64806
:1019A0001220A0792440F582E434E112209FC2FE87
:1019B00004F0EE1220A8B94003011E7B7B407A019F
:1019C0007D830225D68B1220A5D31220A059A3A374
:1019D000E0147003011B3A24F8603324FA70030109
:1019E0001B1024EA6003011E7B7EE27F3AED240493
:1019F000FDE43C12201F301220A6D074061220A74E
:101A0000B724041220A21B12201F4C011E731220A7
:101A1000A4878E831220A16112209FC21220A3FBF3
:101A20007003011E7B1220A487FF8E831220A7263D
:101A300012209FC2FD9000C65A1220A5A9FC1220B8
:101A4000A5771220A6FF9000E258E06401702DF007
:101A50008F821220A000A3A3E06003011E7B9000F0
:101A6000C65AE064017003011E7BEC1220A0D9ADC0
:101A700082FC1220A2927B01022655CE9000C6461F
:101A800012209FFAA3A3E070559000E24DE030E6EB
:101A9000219000C6481220A0791220A57B12209F19
:101AA000C2703B1220A0D8AD82FC1220A2927B0112
:101AB00080289000E259E070259000C6481220A0CE
:101AC000791220A57B12209FC2640170111220A000
:101AD000D8AD82FC1220A292E4FB122655CE122031
:101AE000A6D074071220A5A91220A0D912201E8FFB
:101AF0001220A57712209FC29000C652F09000C617
:101B00004612209FFAA3A3E09000C651F0011E7375
:101B10009000C64612209FFAA3A3E06003011E7B3B
:101B20001220A8167405F09000E240E09000C64C28
:101B3000F0E49000C64BF0011E739000C6461220E0
:101B40009FFAA3A3E0600764026003011E7B90007C
:101B5000C647E02404FF1220A21CFE1226EEF790D6
:101B600000C648EFF01220A1254003011E7B122081
:101B7000A0791220A1A81220A47F1220A815740A0F
:101B80001220A0D712201ECA9000C651F09000C6A5
:101B90004612209FFAA3A3E09000C655F012201F22
:101BA0003812201EDD74021220A5A91220A0D97EB1
:101BB000C67F4B12201F0A9000C648E09000C65115
:101BC000F074FF9000C653F0A31220A8D9A37402AA
:101BD000F0011E739000C647E02403FF1220A21CF0
:101BE000FE1226EEF71220A4037003011E7B1220C2
:101BF000A487FF12209FFEA3E06003011E7B12203A
:101C0000A3532409F582E4358312209FC2FF90007C
:101C1000C648E01220A5771220A554229000E24D7C
:101C2000E030E40F1220A87C60091220A20EFC0212
:101C300026E4A71220A6D07408F07EC67F4B12209F
:101C4000A21412201F4C011E739000C647E0240509
:101C5000FF1220A21CFE1226EEF71220A40370032E
:101C6000011E7B1220A487FF12209FFEA3E06003C9
:101C7000011E7B8F821220A0001220A65CFD900026
:101C8000C6481220A0791220A37B1220A738122068
:101C9000A0F61220A33012209FC254F91220A0F601
:101CA0001220A33012209FC212201EFD1220A7B5C1
:101CB00024051220A21B12201F149000C657740185
:101CC0001220A4861220A7D82410F582E4358312AE
:101CD000209FC2FDA3E09000C654CDF0A3EDF0120A
:101CE00020A353240EF582E4358312209FC2FFA364
:101CF000E09000C652CFF0A3EFF09000C646A3E0FC
:101D00008E837593002412F582E4358312209FC2DE
:101D10009000C656F0011E739000C6461220AA001D
:101D200024081220A0A712000D749000C65A122099
:101D3000A4DCE58224081220A0A712000D747818F4
:101D400012000D169000E230EFF09000C646A3E0BE
:101D50008A8375930024081220A0A712000D7478BE
:101D60001012000D169000E22F1220A4DCE5822450
:101D7000081220A0A712000D74780812000D16900A
:101D800000E22E1220A5D11220A0591220A4581230
:101D9000201F387EE27F311220A214FC7B06020055
:101DA00012101220A487FF12209FFEA3E0700301EF
:101DB0001E7BEF12201F411220A4037003011E7B23
:101DC0001220A0791220A1A81220A47FF09000C6B2
:101DD000461220A055A3A3E064187019EF1220A1A9
:101DE0007212209FC2FCA3E0FD1220A2927B161269
:101DF00027978180091220A19F1220A47FF0122032
:101E0000A5A01220A0D912201EEF1220AA52F08005
:101E1000629000C64612209FFA1220A3F860481272
:101E200020A487FF12209FFEA3E0703B1220A35343
:101E30001220A36A12209FC264029000C648701646
:101E40001220A0791220A7ADF5831220A3E37D17FD
:101E50001226276680111220A0791220A7AD122029
:101E6000A47FF012276E3B1220A5D31220A0591296
:101E700020A4587EC67F491226626122AD82FC7E74
:101E8000C67F4B7B06120012109000C648E022ADC0
:101E900082FC7EC67F4B7B06120012109000C64863
:101EA000E022FC7B06120012109000C648E0900071
:101EB000C651F074FF9000C653F0A3F09000C652D4
:101EC0007401F0E49000C655F022AD82FC7EC67F1E
:101ED0004D7B06120012109000C648E0229000C60A
:101EE00048E0FF1225E1969000C649E4F0A322AD38
:101EF00082FC7EC67F4C7B061200121022F0122656
:101F00006F789000C649E4F0A322AD82FC7B0612F4
:101F100000121022FC7B06120012109000C648E04E
:101F20009000C651F022F07EC67F491226626122DF
:101F3000FC7B0612001210227EC67F4912266261C7
:101F4000222403FFE43EFE1226EEF722FC7B06125B
:101F500000121022FE1227545F9000C64822900003
:101F6000F3B0ECF0A3ED1221BE5B9000F3B01221B0
:101F7000BD351221C0FD4002801A1221BF7A9000A7
:101F8000F3B4EFF06406600C1221BD041221BCE82A
:101F9000640260057E007F03227F0B7E00122558BD
:101FA0005E9000F3B91221BD9F7004FE7F0222E40F
:101FB0009000F3B5F074741221C228740B1221BD85
:101FC000F29000F3B0E0FCA3E0FD7B0B12001210D6
:101FD0009000F3B4E0FF7AF37BB5E4FD122438B34C
:101FE0009000F3B2EEF0A3EFF09000F3B9E0FEA39F
:101FF000E0FF122646F29000F3B2E0FEA3E0FF22DB
:10200000227F0122229000C7C11225DA5D9000C70D
:10201000C0EFF004FF9000C7C6F07E001204CF4C62
:102020009000C7C7EEF0A3EFF01200048A9000C73B
:10203000C4EEF0A3EFF08E837593001225D9DAE495
:10204000F074221225DA0924061225D9DCE4F09076
:1020500000C7C3E014601914601F14602514602BBE
:10206000146031240570341225D9F97413F0802BD3
:102070001225D9F97412F080221225D9F97415F0BD
:1020800080191225D9F97414F080101225D9F97429
:1020900017F080071225D9F97416F09000C7C0E038
:1020A000FB601D9000C7C8E02401FF9000C7C7E097
:1020B0003400FE9000C7C1E0FCA3E0FD1200121046
:1020C0009000C7C6E0FF9000C7C4E0FCA3E0FD8C11
:1020D0008375930024071225D9DCEFF09000C7C761
:1020E000E0FEA3E0FF1225DA31E58224081225D9AB
:1020F000DCEEF0A3EFF07F0812000451E4FEFF22B3
:102100000226A8F5022796E9020404FD020407F559
:1021100002279291022764D0022794D80224DA2B56
:102120000225D92A0226378902246FCD9000C53EA8
:10213000EFF0C3748094804006122693DD40057E44
:10214000007F03229000C53EE0FF122693D5501B6E
:10215000122693FE122693CA55801226940FFEF87B
:10216000EF088002C313D8FC0121F09000C53E1295
:102170002693D14021D3EF122693EB5019122693C8
:10218000BA55901226940FC39408FEF8EF08800207
:10219000C313D8FC805A9000C53E122693E6402512
:1021A000D3EF122693F7501DE0C39410122693BE6E
:1021B00055A01226940FC39410FEF8EF088002C3B6
:1021C00013D8FC802B9000C53E122693F2402912B2
:1021D0002693DD5023E0C39418122693BE55B01207
:1021E00026940FC39418FEF8EF088002C313D8FC9E
:1021F0008D828C83759300F0E4FEFF2201030008BA
:102200000E12010A4254353531315F303032030449
:10221000010100029000C648EEF0A3EFF07EC67FF9
:102220004B7B20E4FD1200004F12221C5012221B97
:1022300017E012000E68229A0123220223D20324FF
:102240001504245805249F06256907266B08288F46
:102250000929F70A2D5B0B266B0C2E000D2EB60EEE
:102260002EFD0F2F19102F66112F9E1230031330E1
:102270001E143079153094163354173379183448B6
:102280001934E21A35201B266B1C288F1D35671E5A
:1022900035861F359E40000035CE12221AE9705057
:1022A0001227807B12221B5370030135CE12221C91
:1022B0005012221B1712221DC412221B2412221D8F
:1022C000CE12221B8612221DB0EC12221BEF12220C
:1022D0001C9912221CE412221CAE12221DD51222BD
:1022E0001CD612221DD59000C64B04F0A3EF80131C
:1022F00012221B0F12221B4C70030135CE740112E7
:10230000221D1C12221C4F12221B17A3A3E0FD1238
:10231000221BFDCDF0A3ED12221AE89000C64F015A
:102320002EF912221B0F12221B4C70030135CE74A2
:102330000212221D1CF09000C64812221B602406C7
:1023400012221AF4FD12221BFDCDF0ED12221B8584
:10235000E582240A12221AF49000C64F122035E2B8
:1023600012221BB0240A12221AF460030135CE1285
:10237000221C3412221AF9FEA3E0FF4E600412263A
:1023800046F212221EA7FFAEF0122035FF12221CC9
:102390003912221C99ED12221C3912221AF9FEA3BD
:1023A000E0FF4E600812221EA71220360A12221EDB
:1023B000B112221CD712221AF970030135CEEE1287
:1023C000221B2412221AF912221BBEAD82FC022605
:1023D000467512221B0F12221B4C70030135CE12C0
:1023E000221C1612221AF912221B6F600A9000C6D4
:1023F0006B12221B13E4F012221B0FA3A3E0700840
:1024000012221CE41226D951740512221B0012223A
:102410001BFC012EF912221B0F12221B4C70030110
:1024200035CE12221C1612221AF912221B6F600AD4
:102430009000C66B12221B13E4F012221B0FA3A301
:10244000E0700812221CE41226D951740312221BD8
:102450000012221BFC012EF912221B0F12221B4C10
:1024600070030135CE12221C1612221AF912221BF9
:102470006F600A9000C66B12221B13E4F012221B3D
:102480000FA3A3E0700812221CE41226D951900079
:10249000C64B740412221B0412221BFC012EF912DB
:1024A000221B0F12221B4C70030135CE9000F02628
:1024B000E0FFA3E09000C68FCFF0A3EFF0E4A3F01D
:1024C00012221E789000C691E0C39B400301255064
:1024D0009000C68FE0FEA3E0FF12221B17A3E012BC
:1024E000221E43246BF582E434C612221DCE122232
:1024F0001B86E0FFEC25E025E0246CF582E434C681
:1025000012221C659000C68F12221B602408122222
:102510001AF412221E43246DF582E434C612221DE1
:10252000CE12221B86E582240A12221AF4FFEC2521
:10253000E025E0246EF582E434C612221C6590008A
:10254000C68F12221D089000C691E004F00124C03D
:1025500012221B30A3E0FD9000C69574C6F0A37450
:102560006BF0E4A3F00224B62112221B0F12221BEF
:102570004C70030135CE12221C5012221B1712225E
:102580001CA412221AF96D60030135CE741A1222AE
:102590001B7FA312221BFB12221B86E582242D1215
:1025A000221AF49000C64E122035E29000C648125E
:1025B000221B60242D12221AF460030135CE122250
:1025C0001B8712221DAF9000C64AE0FD12221CF8A4
:1025D00012221C99ED12221CEC12221DD5ED1222A2
:1025E0001C2812221AF9FEA3E0FF4E6004122646B0
:1025F000F29000C64AE012221CF812221AF9FEA339
:10260000E07802C333CE33CED8F9FF122035FF1263
:10261000221C2812221C99ED12221C2812221AF9BF
:10262000FEA3E04E70030135CEED12221C281222CB
:102630001AF9FEA3E0FFED12221CF8F58375930052
:10264000A3E025E025E0FB9000C649E02405FD90CD
:1026500000C648E03400FC1200121012221CE412E2
:10266000221C28F5837593000129C87EC67F6B7BE9
:1026700013E4FD1200004F12221B0F12221B4C709C
:10268000030135CEE0FF12221C6EF58375930074B2
:1026900001F0A37403F012221BD012221C7BE06411
:1026A0000C7018759300A3A3A3E0FD122740669059
:1026B00000C67E12221B787018800012221B0FA306
:1026C000A3A3E0FF122743F69000C67EEEF0A3EF2F
:1026D000F09000C67EE07002A3E0706112221BD071
:1026E00012221C7AE06408701212221B3DA3E090B3
:1026F00000C69612221E4F0225CA8512221BD01236
:10270000221C7AE0641C701212221B3DA3E0900090
:10271000C69612221E4F0225BC0E12221BD0122278
:102720001C7AE0640C60030135CE12221B3DA3E04D
:10273000FD9000C69612221E500225BCC09000C615
:102740006B7401F012221E03A3E0FF12221B17A3D9
:10275000A3E09000C67112221B86A3A3A3E0FFA3EF
:10276000E09000C672CFF0A3EFF09000C67E122278
:102770001B62240512221AF49000C67DF09000C658
:1027800077740112221B86E582240812221AF49023
:1027900000C678F09000C67E12221BB624091222D1
:1027A0001AF4FF9000C679F07E007006A37404F05E
:1027B0008022EF64024E70099000C67A7406F080A1
:1027C000139000C67E12221BB4240B12221AF4901E
:1027D00000C67AF09000C67AE0FF7E001225585EAF
:1027E0009000C67B12221B7870030135CE9000C684
:1027F0007BE0FEA3E0FF9000C67AE01220360A904C
:1028000000C67E12221CCB240912221AF4FFED24EA
:102810000BFDE43CFC9000C67BE0FAA3E0FB122435
:10282000B28312221BD012221C7AE06408701312A9
:10283000221B3D12221E239000C696F01225CA8547
:10284000804612221BD012221C7AE0641C70289051
:1028500000C67E12221BB4240512221AF49000C670
:102860007DF08D8212221B3B12221E239000C69601
:10287000F01225BC0E801112221B3012221E239052
:1028800000C696F01225BCC09000C67B01344012F1
:10289000221B0F12221B4C70030135CE12221B0F7C
:1028A000A3A3E0FF9000C64AE012221CAE12221A37
:1028B000F96F60030135CE9000C64B740612221CDE
:1028C000E39000C64CF012221C2812221AF9FCA335
:1028D000E0FD12221CEB12221AF975F004A4FFEDA0
:1028E0002FFFEC35F09000C66BF0FCA3EFF0FD7EFF
:1028F000C67F4D7B04120012109000C64812221BA6
:1029000060240912221AF460079000C6517401F085
:1029100012221B87E582241512221AF46007900008
:10292000C6547401F09000C64812221B60240F1296
:10293000221AF4601112221B87E582241112221A36
:10294000F49000C658F012221BD012221CCF241182
:1029500012221AF412221C07241212221AF4122232
:102960001BAF241312221AF4FAA3E0FB74C612223E
:102970001D6E745AF01224B14C122035F612221B2F
:10298000B0241612221AF460030135CE12221CE480
:1029900012221CEC12221AF904F012221CEB122251
:1029A0001AF9FD12221CE412221CF812221AF9FA5A
:1029B000A3E06D7001EA601E9000C66BE475F00440
:1029C00012000B099000C66BE0FCA3E012221C7BF6
:1029D000E0FD0226A71512221C2312221AF9FEA3DB
:1029E000E0FF4E70030135CE122646F212221C2360
:1029F00012221DD5A3F02212221B0F12221B4C7093
:102A0000030135CE12221B0F12221B6B701A1222E9
:102A10001B1F12221AF912221BCFF58212221B450C
:102A200012221D75741280259000C66B12221B1392
:102A3000E06401701E12221B1F12221AF912221BBF
:102A4000CFF58212221B4512221D757413F0E4FB90
:102A5000012BE012221BD012221CCF241112221AA9
:102A6000F464016003012B9A12221C082413122221
:102A70001AF4FFC00712221C08241412221AF4129E
:102A8000221BAF241512221AF412221D66746DF057
:102A9000D0071224B14C12221B5C240912221AF412
:102AA0006003012B3B12221B87E582240B12221AA2
:102AB000F412221D4E606612221B5C240C12221A94
:102AC000F412221EB8605612221B87E582240D12D2
:102AD000221AF412221EC2604412221B5C240E121F
:102AE000221AF412221ECC603412221B87E58224A3
:102AF0000F12221AF412221ED6602212221B5C240C
:102B00001012221AF412221E62501212221B87E5A2
:102B100082241112221AF412221E6D507D12221BE1
:102B20001F12221AF912221BCFF58212221B451204
:102B3000221D757429F07B07012BE012221B5C24F7
:102B40000912221AF46402705112221B87E58224B2
:102B50000B12221AF412221D4E602212221B5C2438
:102B60000C12221AF412221D7D601212221B87E51C
:102B700082240E12221AF412221EE0701D12221B51
:102B80001F12221AF912221BCFF58212221B4512A4
:102B9000221D757429F07B0780469000C6481222DA
:102BA0001B60240B12221AF4640170389000C64F87
:102BB0000412221B86E582240C12221AF4FEA3E0E2
:102BC00064024E601F12221B1F12221AF912221BCE
:102BD000CFF58212221B4512221D757429F07B0449
:102BE0000227802D12221B1F12221AF912221BCF3C
:102BF000F58212221B45A3E0FDE49000C695F0FB90
:102C00001227802D9000C66BE0FEA3E0FF12221B6E
:102C1000177401F012221BD012221CCF241712228B
:102C20001AF4640170659000C6520412221B86E5F6
:102C300082240A12221AF4640170509000C64A12CB
:102C4000221C6D12221AF9FEA3E0FF64037003EE4A
:102C500064017037EF64037003EE6401702D12227B
:102C60001EB112221B2412221AF912221BBE12229A
:102C70001DB88D828C8312221AEDFD12221DDD12E9
:102C8000221AF4FAA3E0FB122644809000C64B748B
:102C90000712221D1DF09000C64812221B6012224E
:102CA0001AF29000C64D12221B86A3A3A3E0900047
:102CB000C64EF09000C64812221BB6241212221AE9
:102CC000F49000C65512221B86E582241312221AA4
:102CD000F49000C656F07EC67F58122035CF1222DF
:102CE0001C3412221AF9FEA3E0FF4E604E12221D80
:102CF000ED12221DFDC39F502012221BD0F582121F
:102D0000221B4512221E2C7001EA600D12221D04A6
:102D10009000C67EE004F080D89000C67EE06F6030
:102D20001A12221B0F12221CBA12221B4512221E3B
:102D30000A7CC67D4F7B1A1200121012221C501200
:102D4000221B17A312221DC312221C1712221DCEF2
:102D500012221AE8FFEC12221C5A2212221B0F1216
:102D6000221B4C70030135CEA3740812221CE39081
:102D700000C64CF012221BD08C8375930012221ACD
:102D8000F29000C64DF060030135C6EF12221C1709
:102D900012221AF912221E1412221B177401F07546
:102DA0009300E582240A12221AF4640160030135BB
:102DB000C612221EB112221C6E12221AF9FCA3E0C6
:102DC00064037003EC640160030135C69000C64AD9
:102DD000E0FD12221B2412221AF9FFED12221D100F
:102DE00012221AF9FD12221BBF12221DB812221D37
:102DF000DD12221AF4FAA3E0FB122644800135C644
:102E000012221B0F12221B4C70030135CE12221C02
:102E10005012221B1712221CA412221AF96D6003F1
:102E20000135CE740912221B7FE582241612221A64
:102E3000F49000C66812221B86E582240912221A29
:102E4000F460079000C64E7401F09000C64812224C
:102E50001B60241512221AF460079000C6517401F9
:102E6000F012221B87E582240F12221AF4600F123F
:102E7000221BB0241112221AF49000C655F012221F
:102E80001BD012221CCF241112221AF412221C076A
:102E9000241212221AF412221BAF241312221AF443
:102EA000FAA3E0FB9000C69674C6F0A37457F01224
:102EB00024B14C0135C612221B0F12221B4C700389
:102EC0000135CE12221B0F12221B6B9000C64870D8
:102ED0000D12221B34A3E0FD7B12022781F2122285
:102EE0001B34A3E0FDE4FB122781F29000C64B7473
:102EF0000C12221B0412221BFBF00135C612221BEE
:102F00000F12221B4C70030135CEA3740D12221B2D
:102F10000412221BFBF00135C612221B0F12221BCA
:102F20004C70030135CE12221B0F12221B6B700D49
:102F300012221B30A3E0FD7B12022783ED9000C616
:102F40006B12221B13E4F012221B30A3E0FDE4FB02
:102F5000122783ED9000C64B741012221B0412221C
:102F60001BFBF00135C612221B0F12221B4C7003F3
:102F70000135CEA3741112221B0412221BFB122056
:102F800035EC12221B0FA3A3A3E060030135CE1280
:102F9000221C1212221AF912221E1401356012226A
:102FA0001B0F12221B4C70030135CE12221B0F1275
:102FB000221B6B701D12221B1F12221AF912221CD7
:102FC0008312221BA7A3A3A3E0FB9000C695741253
:102FD000802C9000C64B740E12221B0412221BFB85
:102FE000122035EC12221B1F12221AF912221C8306
:102FF00012221BA7A3A3A3E0FBE49000C695F00256
:1030000027792A12221B0F12221B4C70030135CE86
:10301000740F12221AC49000C64EF00135C6122257
:103020001B0F12221B4C70030135CE12221B0F12F4
:10303000221B6B702012221B1F12221AF912221C53
:103040008312221BA7A3A3A3E0FB9000C6957412D2
:10305000F00227794812221B30A3E0FDE49000C65D
:1030600095F0FB122779489000C64B741212221B70
:103070000412221BFBF00135C612221B0F12221B69
:103080004C70030135CE741312221AC49000C64E40
:10309000F00135C612221B0F12221B4C70030135A2
:1030A000CE12221B0F12221B6B701A12221B1F1230
:1030B000221AF912221BCFF58212221B4512221D61
:1030C00091741280239000C66B12221B13E0701EB5
:1030D00012221B1F12221AF912221BCFF582122272
:1030E0001B4512221D917414F0E4FB01327B122265
:1030F0001BD012221CCF241012221AF46401600388
:1031000001323512221C08241212221AF4FFC007C1
:1031100012221C08241312221AF412221BAF2414A8
:1031200012221AF412221D66746DF0D0071224B117
:103130004C12221B5C240912221AF460030131D6BE
:1031400012221B87E582240B12221AF412221D4E32
:10315000606612221B5C240C12221AF412221EB882
:10316000605612221B87E582240D12221AF41222C5
:103170001EC2604412221B5C240E12221AF4122278
:103180001ECC603412221B87E582240F12221AF40F
:1031900012221ED6602212221B5C241012221AF464
:1031A00012221E62501212221B87E5822411122263
:1031B0001AF412221E6D507D12221B1F12221AF9C0
:1031C00012221BCFF58212221B4512221D91742957
:1031D000F07B0701327B12221B5C240912221AF4B5
:1031E0006402705112221B87E582240B12221AF40A
:1031F00012221D4E602212221B5C240C12221AF491
:1032000012221D7D601212221B87E582240E1222DB
:103210001AF412221EE0701D12221B1F12221AF92C
:1032200012221BCFF58212221B4512221D917429F6
:10323000F07B0780469000C64812221B60240A12C9
:10324000221AF4640170389000C64E0412221B86C4
:10325000E582240B12221AF4FEA3E064024E601FE2
:1032600012221B1F12221AF912221BCFF5821222E0
:103270001B4512221D917429F07B040227887F12BE
:10328000221BB0241612221AF4640170069000C6A4
:103290005104F012221B1F12221AF912221BCFF521
:1032A0008212221B45A3E0FDE49000C695F0FB12BC
:1032B00027887F9000C64B740A12221C4512221BDD
:1032C0001712221BFB12221B86E582241112221ADE
:1032D000F49000C654F09000C64812221BB6241287
:1032E00012221AF49000C655F07EC67F5712203580
:1032F000CF12221C3412221AF9FEA3E0FF4E7003F3
:103300000135CE12221DED12221DFDC39F50201249
:10331000221BD0F58212221B4512221E2C7001EABC
:10332000600D12221D049000C67EE004F080D8904B
:1033300000C67EE06F70030135CE12221B0F1222F1
:103340001CBA12221B4512221E0A7CC67D4E7B1A15
:103350000200121012221B0F12221B4C70030135A7
:10336000CEA3740B12221D1DF012221BB012221AC2
:10337000F29000C64DF00135C612221B0F12221B1F
:103380004C70030135CE12221B0F12221B6B703CB6
:1033900012221B1F12221AF9FFC00712221C501200
:1033A000221B17A3A3E0FD12221AE9FAA3E0FB9067
:1033B00000C648A3E02406FFE43E9000C83CF0A30A
:1033C000EFF0A37412F0D0070225225512221C50F0
:1033D00012221B1712221DC312221D5A12221DCEA9
:1033E000F09000C64B741612221B8312221BFBF0B6
:1033F00012221BB012221AF2FEA3E0FF9000C64E6A
:10340000EEF0A3EFF01225585E9000C65012221B7A
:103410007870030135CE7EC67F5012221EEA240644
:10342000FDE43AFC12221BA712221E89F583759334
:1034300000A3E0FB12001210122035F69000C650D7
:10344000E0FEA3E0FF0134DE12221B0F12221B4C10
:1034500070030135CEA3741712221C4512221B17CC
:10346000A3A3A3E0FCA3E0FD9000C64DECF0A3ED08
:1034700012221B86E582241512221AF49000C651EE
:10348000F0E49000C64FF0A3F0D3ED9400EC94006C
:1034900040399000C64812221B1512221DAF12257A
:1034A000585E9000C64F12221B7870030135CE7E05
:1034B000C67F4F12221EEA2405FDE43AFC12221BAD
:1034C000A7A3A3A3A3E0FB120012101220361290B0
:1034D00000C64FE0FEA3E0FF4E70030135CE02268A
:1034E00046F212221B0F12221B4C70030135CE1222
:1034F000221B0F12221B6B600A9000C66B12221B4C
:1035000013E4F012221B30A3E0FD12278405900083
:10351000C64B741412221B0412221BFBF00135C689
:1035200012221B0F12221B4C70030135CEA37415FF
:1035300012221B0412221BFBF01220361212221B35
:103540000FA3A3A3E060030135CE12221C121222A6
:103550001AF912221B6F60769000C66BE0FEA3E0A2
:1035600012221B17E4F02212221B0F12221B4C60A6
:103570005DA3741812221AC5FFA3E09000C64ECFB7
:10358000F0A3EFF0804012221B0F12221B4C603E72
:10359000A3741912221B0412221BFBF08028122292
:1035A0001B0F12221B4C6026E0FF12221D1012225C
:1035B0001AF9FD12276CDB9000C64B744012221BD7
:1035C0000412221BFCF07EC67F4B12276C3B227C30
:1035D000C67D6D7B11120012107EC67F4B12276CC8
:1035E0003B22F07EC67F4B12276C3B22F07EC67FCB
:1035F0004B12276C3B227EC67F4B12276C3B22125C
:1036000025585E9000C64AE0FD22FBE4FD12000052
:103610004F227EC67F4B12276C3B229000C859EE8A
:10362000F0A3EFF07EC87F5B7B06E4FD1200004F45
:1036300012230D87FD12230D1BE0FEA3E08EF01276
:10364000000E9036D700013B230002407000033E7D
:10365000A100043F6C00053FC50006469E00073FE1
:10366000C90008401100094030000A410A10014118
:103670001610024151100341621004425F100546CA
:103680009E100741CC10084176100A4106100B46E7
:103690009E100C469E100D469E100F469E1015461D
:1036A0009E101642A8101D42D7101E42F220014360
:1036B0009E3001469E300243B93003469E3004449A
:1036C0000F30054471300C44D8300D454B300E4658
:1036D00033300F0000465512230D2412230ECE1254
:1036E000230D00E09000C86112230D6CE5822405D3
:1036F00012230D0212230F3612230D54A3A3E0FF51
:103700009000C878F012230D54A3A3A3E09000C842
:1037100079F0122047061226E2CD9000C877EFF02C
:103720009000C861E060046401703C9000C862E0F1
:1037300064027023740512230D2D12230E891223A7
:103740000F3D1225E75612230EF19000C865600365
:1037500001388FF00138A59000C862E0600301389D
:10376000A5A3740701380C9000C861E0FC640270E6
:103770006AA3E06402702C740612230EADFD540F90
:10378000FF9000C864E054F04FFF12230D41FEEF9C
:10379000540F4E9000C864F0AF05AD041225E756F3
:1037A0000138A59000C862E060030138A5740812D2
:1037B000230EAD9000C864F0122779DBEF6003019F
:1037C00038A512230F449000C961E4F0A37410F0EF
:1037D000E4FB7D0E122740350138A512230ED56477
:1037E000037030A3E0FD7C0064027013A3740B121D
:1037F000230EAE12230D35FBEE540F4B0138A0ED16
:103800004C60030138A59000C863740C12230EAEFF
:103810000138A0EF640470459000C862E0FB7A00B4
:1038200064027023740D12230D2D12230E89EF54A0
:1038300003A312230DB912230E759000C865F0542E
:103840003F12230F4B8048EB4A705A12230DA712E8
:10385000230E759000C864F0543FF080489000C873
:1038600061E06405703FA3E0FB7A0064027025A369
:10387000741012230D2E12230E89EF5403FFA3128E
:10388000230DBA12230E2D9000C86512230F4B741E
:1038900001F08011EB4A700D12230DA712230E2D9B
:1038A0009000C864F012230E0564026003EF7015E7
:1038B0009000C861E06406600C7EC87F6312228CB1
:1038C000F51223D0499000C862E064026003013A17
:1038D000679000C87EF0A3F07F091226420A1224E6
:1038E000F3909000C87E12230E94602F9000C87849
:1038F000E075F010A4FFAEF012230F3DEF4D9000E5
:10390000C88012230DEAFD12230F44AB05E490009A
:10391000C961F0A3F07D1702263D91122688657ECD
:10392000C87F5B12230F3D7B0112232A0B12230E4B
:10393000587CC87D5B9000C861E0FB9000C8917422
:1039400001F01222903F9000C861E06007640160BE
:1039500003013A079000C471E05407600D12230E72
:10396000447402F07D09122731877D017F051225FD
:103970003DA37EC87F7B12274BDE9000C87BE030E2
:10398000E51512230E581226CFCAEF6402700812F2
:10399000230E58122686549000C87BE030E31D1297
:1039A000230E587CC87D8012272B1C9000C880A352
:1039B000E030E10812230E581227391012230E5856
:1039C0007D011226E31C9000C861E0600301469E61
:1039D0007EC87F7C12274C0B7EC87F7D12274C65EA
:1039E0009000C87CE020E50301469EA3E020E309A7
:1039F00012230F1E700301469E9000C87812230DFB
:103A0000757D010223DB5C12230E9B702B7EC87F29
:103A10007A122750F19000C87AE030E7067F021250
:103A200026C1977D017F0612253DA3122779DBEF82
:103A3000700301469E0144D09000C861E0640370A9
:103A4000179000C471E020E40301469E12230E4447
:103A500004F07D0A0227318712230ED56404700317
:103A600001469EEF6405229000C862E060030146B3
:103A70009E12230E9B706D12230E589000C45BE0C3
:103A80006F70519000C46DE0704A9000C45AE0FF1E
:103A900064056040EF603DE4FD7F01122499BA9017
:103AA00000C87A12230E94602B7EC87F7C122724D4
:103AB000DA9000C87CE0FF1313135401701612272C
:103AC00095CFEF6401700D122795EBEF70067F0123
:103AD0001227866F7F0212204727600301469EFD52
:103AE0007F06803B12230ED56404700301469EEFCF
:103AF0006405700301469EEF6007640160030146A0
:103B00009E122046D7FF12204727600301469E7F62
:103B10000112269C5FEF4E600301469EFD7F050269
:103B2000253DA312230D2412230ECE240C12230DA7
:103B300002E09000C86112230D6CE5822408122374
:103B40000D0212230F369000C859A3E08E8375939F
:103B500000240912230D02E06401600301469E90D7
:103B600000C87D7408F09000C886E4F0A37404F0E7
:103B700012230E9B6003013D4A12230DFD1226E223
:103B8000CD9000C878EFF012230E051227675B90E6
:103B900000C877EFF064046059E025E025E0245E7A
:103BA000F582E434C412230F2F640370459000C8DB
:103BB0008AF0A37402F09000C862E0540FFF9000F6
:103BC000C88CE054F04FFFF09000C87812230D46E7
:103BD000FEEF540F4E9000C88CF0788D7CC87D01AC
:103BE0007B017AC8798A7E007F0312000A3312268D
:103BF0009B999000C878E0640860677EC87F7D7CF0
:103C0000C87D7E1227718C9000C878E0247EF582F2
:103C1000E434C812230F2FFF540F9000C87BF0EF3D
:103C200054F0C4540F9000C87AF0A3E0FF12278A22
:103C30005A9000C87CEFF012279615EF7EC87F7966
:103C40007006122771E6800412274AFD12230E0522
:103C50007CC87D7912269FD89000C879E0FF122693
:103C6000C66512230E05122744E19000C46DE07072
:103C70000C9000C862E0FD7F04122499BA9000C83D
:103C8000637415F09000C862E09000C8641220468A
:103C9000EE12230D2412230DFEE4FB7D0712232ACE
:103CA0000B12230D2412230ECE240F12230D02E03B
:103CB000701B9000C88AF012230DFD7CC87D8A120B
:103CC0002713F29000C88AE030E73E803812230DB7
:103CD0002412230ECE240F12230D02E0541F640180
:103CE000702712230D6DE582241012230D02E0547B
:103CF00040644060149000C859A3E012230DFE7D7B
:103D0000801226BA3112230DDC7EC87F891227511A
:103D10001D9000C889E030E40412230DDC7EC87FCA
:103D20008812278B849000C88812230D858C837598
:103D30009300240A12230D02E0FCA3E0FD9000C8CA
:103D400086E0FAA3E0FB02268DB39000C861E06034
:103D500003013E939000C863741112230D238E83D8
:103D6000759300240D12230D02E064087007900083
:103D7000C86404801012230E0512274A1CEF600944
:103D8000E49000C864122046EE9000C46E12230D29
:103D9000858C83759300240812230D02E0FB7D1EA1
:103DA0001227606B122046D712276172EF7037908E
:103DB00000C45AE06405702812230D2412230DFE5E
:103DC0001226E2CD9000C88A122046B07D0712204C
:103DD000469F7D051220469F9000C862122047131F
:103DE0007F0C1226420A12230D248E837593002421
:103DF0000D12230D02E012000E683E8F023E1604E3
:103E00003E20083E16103E161F3E16223E16233E4A
:103E1000162A00003E6E12230E051227283B806FE3
:103E20009000C88AE4F0A304F07EC87F8A1226F2CC
:103E3000849000C88AE0FAA3E0FB4A9000C8626060
:103E40001012230D852402FDE43CFC122594E18030
:103E500008E0FDE4FF1226A03A9000C45AE0602F6B
:103E60006402602B9000C48B122046E5802112234F
:103E70000E05122685EA9000C45AE0600C640260C8
:103E8000089000C48A122046E57F0B1226420A02DF
:103E90002430FB12230EF1600301469E7F0E014089
:103EA0006C12230CDCA3A3A312230CE0E06003013B
:103EB000469E9000C865F0A3F0A3F09000C865F09E
:103EC0009000C865E0FFC3942074809480503190C6
:103ED00000C85912230D17A3A3A312230E6B2407A6
:103EE00012230D02E5822F12230D02E070099000CB
:103EF000C865E004F080099000C865E004F080C067
:103F00009000C865E0FF2402FCE433A3F0A3CCF0EA
:103F10009000C85912230D17A3A312230F55E4A331
:103F2000F0FE1225585E9000C86312230E947003B1
:103F300001469E9000C863E0FEA3E0FF9000C859D0
:103F400012230D1712230EB52407FDE43CFC1220AA
:103F5000471C9000C866E0FEA3E0FF7B017AC879A9
:103F600061122450A39000C86301462A12230D2435
:103F7000FF12230CE4A3A3A3E09000C86112230D59
:103F80006CA3A312230F36701112230ED5640160A7
:103F900005EF640370047F0480149000C862E07031
:103FA000119000C861E06004640270067F0512266B
:103FB000420A9000C862E0600301469EFF1226CFCD
:103FC000750223D0490224E0E678617CC87D017B3C
:103FD000A17A0079DB7E007F1012000A339000C8BE
:103FE000717404F07EC87F717CC87D6112277AC12C
:103FF00012230D242402FDE43EFC9000C871E0FB76
:104000009000C89174C8F0A37461F07F0102272F5B
:10401000A19000C477E0FFE4FD1226FB2F12277069
:1040200038EF70067F0F1226420A7F0102276421B3
:1040300012230D242404FFE43EFE1226E2CD90005C
:10404000C861122046B07D07122046C67D051220A9
:1040500046C69000C85912230D17A3A31220471378
:1040600012277038EF600301469E7F0F0226420A36
:1040700012230D248E83759300240E12230D02E06B
:104080009000C875F0E4FD7F02122499BA12230E45
:10409000607CC87D761226D3C49000C875E06401A8
:1040A0009000C8617023740912230D238E837593C9
:1040B00000240812230D02E09000C862F07D017F09
:1040C00001122730AF7D01802D740A12230D238E3B
:1040D00083759300240812230D02E09000C862F05B
:1040E000E4FDFF122737ABE49000C46FF07D01FFC1
:1040F000122730AFE4FD7F0112253DA37EC87F610A
:1041000012228CF580000225F30B12230D241223BA
:104110000DFE0224A50C12230D87FD12230D1BA3F7
:10412000A3A3E06407700B12230CECA3E0FD0226AE
:10413000AFA312230D87FD12230D1BA3A3A3E064DD
:1041400005600301469E12230CECA3E0FD0226B09D
:10415000BD12230CDC12230EBDAA06F97B0102243A
:10416000372912230CDCA3A3A312230CE0A3E0FD48
:10417000E4FF0227849312230CDCA3A3E0FF7AC898
:104180007B617D011225A76312230E9B700412250B
:10419000F30B12230CDCA3A3A312230CE0A3E07007
:1041A0000C9000C478E0FFE4FD1226FB2F7EC87F50
:1041B0006212274BDE9000C862E020E40301469EB5
:1041C00012230CDCA3A3E0FF0226865412230CDC8E
:1041D00012230EBDFF9000C861EEF0A3EFF0122392
:1041E0000CE4A3E06401701D9000C86112230CE090
:1041F000A3A3E0FF9000C470E06F700301469EEF40
:10420000F00226C6659000C86112230CE0A3E064AA
:1042100002600301469E9000C86312230E5F7CC8B3
:104220007D6312272FD79000C863E06401701B12D2
:104230002796B6EF640C70129000C86112230CE050
:10424000A3A3E0FF7D011225B45A9000C861122398
:104250000D17E0FF759300A3A3E0FD0226B29312B1
:10426000230D24FF12230CE4A3A3E0F99000C861FE
:1042700012230D6CA3A3A3E0FFA3E09000C862CFBC
:10428000F0A3EFF0AF019000C862E0FAA3E0FBF505
:10429000828A8312230EFB7C008B828A83759300B3
:1042A00012230EDD022647EB12230D24FF12230CEE
:1042B000E412230EB5FD9000C861ECF0FAA3EDF016
:1042C000FB12230D6DA3A3E0FF8B8212230D90FA46
:1042D000A3E0FB0226486712230D24FF12230CE4FF
:1042E00012230D5CA3A3E012230D53A3E0FD0226CD
:1042F0006A1712230D2412230DFE12230EC512235A
:104300000CE4A3E06402701F9000C86112230CE06B
:10431000E0FD12230E60ED6F600D9000C46DE07043
:10432000067F04122499BA12230EA312230CE4A3CD
:10433000E06402703812230D6DE0FF7CC87D6312CB
:10434000269CC29000C863E0FF1226E6D07EC87F9C
:1043500064122724DA9000C864E030E30C12279539
:10436000EBEF6401700301469EE4FF802D9000C8CE
:104370006112230CE0A3E06401600301469E122752
:1043800095CFEF700301469E122795EBEF60030176
:10439000469E7F011227866F7F010226EE5F122361
:1043A0000D24FF12230CE412230D5CA3A3E0FF7C79
:1043B00000ED5402FD0226FDB512230D2412230D3B
:1043C000FE12230EC512230CE4E0FF9000C45BE054
:1043D000B50715122796B6EF640D700C9000C861F2
:1043E00012230CE0122046F812230EA312230CE431
:1043F000A3A3E0700A12230D6DE0FFE4FD800C9092
:1044000000C86112230CE0E0FF7D010226B3AD126B
:10441000230D248E8375930012230D0012230F5554
:10442000122430FB12230EF1600301469E12230C6E
:10443000DCA3A3E0FF7CC87D6212269CC212230E7F
:10444000051226E6D012230CDCA3A3E0FF122047BE
:10445000067B017D0212232A0B9000C46DE06003ED
:1044600001469E12230CDCA3A3E0FD7F04022499E5
:10447000BA12230D249000C86112230E0C9000C8BC
:104480006112230D1712230EF97B0112265463903B
:1044900000C86112230D1712230EF91226B40B90D7
:1044A00000C86112230CE0E0FF9000C45BE0B50798
:1044B00015122796B6EF640D700C9000C861122398
:1044C0000CE0122046F8122779DBEF700301469EBC
:1044D0007D027F010224B9BA12230D249000C86521
:1044E00012230E0CA37404F09000C865E0FEA3E054
:1044F000FF12230CE412230F55A37403F0E4900081
:10450000C864F09000C86312230D6CA3A3E060168A
:104510009000C8647401F0122779DBEF60087D0217
:104520007F011224B9BA9000C86512230CE0A3E001
:1045300060079000C8637401F09000C867E0FF7ED8
:10454000007B017AC87961022450A39000C8657489
:1045500006F012230CDC12230EBD8E83759300121D
:10456000230D00E0FEA3E0FF9000C865E0FD7C00A5
:10457000EF2DFFEC3ECF2401CF3400FE12230EC5F9
:104580001225585E9000C86312230E9470030146F2
:104590009E9000C863E0FEA3E0FF12230CE47420A9
:1045A000F012230D87FD12230D1BA3A3E0FB1223A2
:1045B0000D54A3A3A312230D17EBF0EF2401FFE486
:1045C0003EFE9000C85912230D1712230EB5FD129E
:1045D00020471C9000C865E02401FFE433FE9000F2
:1045E000C863E0FCA3E02FFFEC3EFE9000C8591228
:1045F000230D1712230EDC8A8375930024061223E1
:104600000D02E0FCA3E0FD8B828A8312230CFBE009
:10461000FAA3E0FB1200112F12230EA3A3E0FCA3C8
:10462000E0FD122791419000C863E0FEA3E0FF0285
:104630002646F212230D87FD12230D1BA3A3E012C1
:10464000230D5312230EDCF58212230D90FAA3E002
:10465000FB0226428812230CDCE0FEA3E0FFEE14EE
:10466000703CEF24F2600624F96027803112230C9D
:10467000DCA3A312000DD9E92403F9E43AFA1200ED
:104680000AB164027D0270047F018002E4FF022708
:1046900030AF12230F44E4FB7D211227606B229080
:1046A00000C88AE0FB1227606B9000C46EE0FF2216
:1046B000EFF0FB9000C46EE0FF7D061227606B9068
:1046C00000C46EE0FF229000C861E0FB1227606B1F
:1046D0009000C46EE0FF22E4FDFF122737ABE490A8
:1046E00000C46FF022E0FFE4FD1226FB2F22F07ED3
:1046F000C87F6312228CF522A3E0FF12278A46E4CA
:10470000FD1225B45A227CC87D5B1227459D7EC8C8
:104710007F5B22E0FB7D081227606B229000C8655A
:10472000E0FB120012102212269C5FEF4E22E49052
:1047300000C520F09000C51CF0A3F0A3F09000DBB2
:104740009CE06401601012234947701EA290400350
:10475000D38001C340149000D4EFE07002A3E06066
:1047600006E4FF1222864E7FFF22122348D7C39011
:1047700000D5057005E094108003E09411FF9000CF
:10478000D504E09400FE9000D525E0FDC3EF9DFF29
:10479000EE94009000C51AF0A3EFF09000624EE096
:1047A000FF64067003015512EF640C70030155128B
:1047B0009000C51AE07002A3E0700301551290004A
:1047C000DA98E060076401600301551212277A321B
:1047D000EF60030155129000D4DC1223484F240CE3
:1047E000122347F5E0FEA3E012234829122347F5E0
:1047F000E060030155079000D526E020E003014862
:104800008B9000EA2CE0600301488B12234947900B
:1048100000C52370057409F080037412F01220554E
:1048200098EFF09000C52412234824122347F5E4A2
:10483000F0A37499F09000C52312234841E5822427
:1048400007122347F5EDF09000C524122349C42434
:1048500008122347F5740DF09000D5191223484132
:10486000E5822409122347F5EDF09000C5241223B8
:10487000485F240A122347F5E4F07F071200045131
:10488000E49000D9F7F09000DA7BF09000D51AE0C0
:1048900060030149F4122348007AC57B217D101280
:1048A0002055BD9000D514E070030149F19000C57A
:1048B00021E0649C60030149F19000C51D04F012E1
:1048C0002348007AC57B217D117C001220555D7A3A
:1048D000C57B227D12122055BD9000C521E0FF90BE
:1048E00000D9F7E06F60221223498570079000C558
:1048F0001DF080299000D9F7EFF09000C522E090DC
:1049000000D5321223496C80149000C522E0FF903C
:1049100000D532E06F6006EFF01224D5A89000C5F4
:104920001DE064016003014A72A3E06003014A7262
:104930009000C5231223498D9000C523F01223490E
:1049400028C39F40030149DBE4A3F09000C524E0A5
:10495000FD122349A65063122348009000C526E0AB
:104960002410FB9000C525E03400FA7C00EB2DFDFF
:10497000EC3A1220553F9000D573E02410FDE4334B
:10498000FC9000C526E02DFD9000C525E03CFC9084
:1049900000C524E07A002DFDEA3CFC7AC57B22129A
:1049A0002752259000C522E0FF9000C521E0B50701
:1049B000099000C524E004F080919000C524E064D3
:1049C0000370189000D573E0FF9000C525122349AD
:1049D000589000C523E004F001493D122349286F97
:1049E0007003014A72E49000C51DF09000C520805C
:1049F000297FFF22122348D770259000C51D04127D
:104A00002348E470111223498570079000C51DF0FA
:104A100080041223496D9000D9F774FFF080539001
:104A200000D514E0604C122348007AC57B237D1129
:104A30007C00122752259000C523E054F8F0900026
:104A4000C51D7401122348E454F812234930FEB501
:104A500007089000D526E030E0181223498570073A
:104A60009000C51DF0800BEE44079000D9F712238B
:104A7000496C9000C51DE07003015512A3E0606011
:104A80001200048A12234815122347F5E4F0A37498
:104A90000B122348E4FB122347EAEBF07F081200D5
:104AA00004519000D526E054FEF0E4FF1222864E19
:104AB0009000625CE06076122348C26005EF6409F2
:104AC000706BE49000DB98F01200048A122347CA4E
:104AD000741EF09000C523E0FCA3E0FD7F07804931
:104AE0009000624EE0FF640D6043EF6404603EEFAF
:104AF000640360399000DA92E064046030900062F0
:104B00004EE0640A6027EF640C60221200048A12EF
:104B1000234815122347F5E4F0A3740B122348E44D
:104B2000FB122347EAEBF07F08120004519000C506
:104B30001AE0FEA3E09000D4DC1223491AA3A312CA
:104B4000234877A3A3E475F01012000B099000F638
:104B500021E09000C51CF06003015321122348D7C7
:104B600070089000C51F04F0800C9000D514E0542C
:104B70000F9000C51FF09000EA16E060591223481C
:104B8000C26005EF6409704E9000D50B122348599E
:104B90002409122347F5EFF09000D501E0FF12231E
:104BA000487CE5822408122347F5EFF09000D4F307
:104BB000E0540F6401700A9000D4FEE09000D4DE4F
:104BC000F01223487CE5822409122347F5E0900087
:104BD000EA40F0014E6FE49000C524F09000D53B10
:104BE000E004F0122348592409122347F512234800
:104BF000A49000D543E02FF09000D50EE0FBA3E099
:104C00009000C525CBF0A3EBF09000D4D8E0F46081
:104C10007EE004F09000D4DBE0FEEFC39E400C90F9
:104C200000C51FE09000D4DBF0801E9000D4F1E0BE
:104C3000FF9000C51FE0FEC39F40089000D4F1EE36
:104C4000F080069000D4D9EEF09000D4D8E064143F
:104C5000703D74FFF09000D4F1E0700A9000D4DB56
:104C6000E09000D4F1F09000D4D9E0700A9000D424
:104C7000F1E09000D4D9F09000D4F1E0FF9000D49E
:104C8000DBE02FFF9000D4D9E02F9000D4DEF0902D
:104C900000C525E0FFA3E09000D540122348A19075
:104CA00000D549E4F0A3EFF09000D543E0FF1223D4
:104CB000487CE5822408122347F5EFF09000C523D5
:104CC0007408F09000612AE07003014DB49000D5A3
:104CD00014E0FF9000C527122348D670071223481E
:104CE000EB014D8E9000C527E0FD7C00C3122349E7
:104CF000974020122348EB9000D25CE004F012238E
:104D000049955003014D8E122348EBE49000D25C8C
:104D1000F0807BED64074C701F122348EB9000D4A9
:104D2000EBE004F0E0D3122349A74062122348EBE2
:104D3000E49000D4EBF080569000C527E0FD7C00A5
:104D400064067021122348EB9000D4ECE004F0E0FC
:104D5000D394047480948040351223499EE49000DB
:104D6000D4ECF08029D3ED9405EC64809480501E3F
:104D70001223499E9000D4EEE004F0E09406748083
:104D80009480400A1223499EE49000D4EEF09000F3
:104D9000D4F2E060199000C527E0122349A6400E26
:104DA0009000D4F2E014F09000C523E014F09000DD
:104DB000D53FEFF0122348ADA3E0FD8F82122348C8
:104DC0000A2DFDED30E0149000C51BE0240F1220E9
:104DD00055199000C51BE0240E8016122348009040
:104DE00000C51BE0240E122055199000C51BE024BD
:104DF0000DFD9000C51AE0122055A49000C51FE0DB
:104E0000FB9000D53BE0FE2BFD9000C521E02DFD81
:104E1000A3E02D540FFDC2AF9000EA33E054F044FC
:104E200001F09000D4DEE09000EA3EF09000EA400D
:104E3000EEF09000D543E09000EA41F0EB540FFF14
:104E4000A3E054F04FF0AF05EF540FC454F0FFE06F
:104E5000540F4FF09000DBA0A3E09000EA3DF01269
:104E60002348007CEA7D337B1012001210D2AF126F
:104E700023494760030150959000C51FE025E024B9
:104E800002FF9000C527F07E00D3941074809480B8
:104E90005055EF94047480948050061200048A8068
:104EA000289000C5271223499550061200049D80C2
:104EB000189000C527E0D394107480948050061297
:104EC0000004B080041204EF80EE122349DBEFF0FF
:104ED0009000C51F12234841E5822408122347F59C
:104EE000EDF0EF2409807312205598EFF09000C583
:104EF00027E0FFC39401FDED541FD39400E4940018
:104F0000400AEF9401C413540704800C9000C52795
:104F1000E0C39401C4135407FF1204875F9000C5D7
:104F2000241223485F2408122347F5EE122348A2D7
:104F30001223487CE5822408122347F5E0FCA3E015
:104F400012234920EFF09000C5241223484F240873
:104F5000122347F5E0FEA3E02401FFE43E9000C5E4
:104F60002CF0A3EFF09000C524122348241223470D
:104F7000F5E4F0A37429F09000C527E0C394011272
:104F8000234842E5822407122347F5EDF09000C53F
:104F90001EE09000C524600C1223484F122347F3F3
:104FA000E4F0800B1223484F122347F37401F0E41E
:104FB0009000C526F0122348A69000C526E0FEC347
:104FC0009F4003015089EE700A9000C52AF0A304A7
:104FD000F0806B12234800122348841220553F12A0
:104FE000234884CD2401CD122055A49000C521E092
:104FF000FEA3E0FDEDFF9000C528EEF0A3EFF090DA
:1050000000C528E0FEA3E07802CEC313CE13D8F982
:10501000FFEE5401FEEF2401FFE43EFE9000C528A0
:10502000F0A3EFF09000C52BE024011223488BCDB4
:105030002FFFED3ECF2402CF3400F0A3EFF090001D
:10504000C526E025E0A3F0FB122348001223488484
:10505000FC7A00122349CFEA38FA1220555D122358
:105060004884CD2401CD3400FC9000C527E0240104
:10507000FBE433FA122349CFE83AFA12275225907B
:1050800000C526E004F0014FB59000C52412234965
:105090007512000451122348ADA3E0FD8F82122344
:1050A000480A2DFDED30E0269000D4DC1223483173
:1050B000E5822DF582E5833CF583759300E41223A8
:1050C000494E122348B6E475F00112000B09122371
:1050D00048C06008EF640960030152239000625CDD
:1050E000E070030152239000E9F7E0FF70030152E2
:1050F000239000C523E0FE1223485B122347F3EE02
:105100001223487BE5822407122347F5EFF0900035
:10511000644C7401F01223484B122347F3E07004EF
:10512000122349EC1223484B2409122347F5E0FFD0
:105130001223487CE5822409122347F5E0FED39F21
:105140004004EE9F80231223484B2409122347F585
:10515000E0F404FF9000D4DCE0FCA3E08C837593C2
:10516000002409122347F5E02F0490006F51F090BE
:1051700000F140E0FD600C122348A69000D54D12CE
:105180002349589000D544E025E0FEE4331223493A
:10519000DBCE122348D670109000DB98E060171227
:1051A0002349DA740FF0800E9000DB98E06007125C
:1051B0002349DA7464F0ED606A9000D4DC1223486D
:1051C0004F2409122347F5E0FF60589000C524E002
:1051D000FCA3E0FDC39000D54EE09D9000D54DE0CE
:1051E0009C40409000D518EFF01200048A9000C552
:1051F00026122347CE741F12205576E49000D54D19
:10520000F0A3F09000DB98E0601914F0E064067001
:10521000121200048A9000C526122347CE740B1286
:105220002055769000E9AEE0FF7E0064036005EF54
:1052300064097008E49000DB6BF0800AEF4E7006A2
:105240009000DB6B04F09000D4DC1223482412237E
:1052500047F57401F09000C51F12234841E58224F0
:1052600005122347F5ED1223494E122348B6E0FEFE
:10527000A3E0FF9000D4EFEE122349599000D4EF41
:10528000E0FEA3E0FF7DB17C00120011589000D534
:105290003EEF1223494EFFF5828E831223483912C6
:1052A000234A001223485B240C122347F5E0FAA39B
:1052B000E0F5828A8375930012234877E582240CF7
:1052C000122347F5E0FFA3E09000D4DC122348A1AD
:1052D0009000D4E1122349589000F0C112000D74DF
:1052E000E4FFED5402FDE4FCED6032122349476017
:1052F0002C9000D519E060259000EA16E0701E9011
:1053000000D542E06402700F9000624EE0640D70C0
:1053100006122311E98006E49000D54FF0D2AF8049
:1053200051122055B0122348C26005EF6409703F46
:105330009000625CE060261200048A9000C523EEB3
:10534000F0A3EFF012234829122347F5E4F0A374E9
:1053500094122347E9740C12205587801290006143
:105360002AE0600B9000683BE0600412277A4F7FD0
:10537000FF229000D542E060030154CFC2AF9000FD
:10538000D4DA04F09000D25DE004122348A5900026
:10539000D4D6E02FF0D2AF9000D4D4122349C42445
:1053A0000C122347F512234831A3A312234A007D90
:1053B000B17C00120011589000D547EFF0900062C8
:1053C0004EE0640D6011C2AF9000625AE4F0A37425
:1053D000C8F0D2AF0154C79000D51AE0FF7E00F4A8
:1053E000700F9000D544E0FD9000D4D6E0C39D50EE
:1053F00028EFF44E700301549C9000D25DE0C394FA
:10540000167480948050129000D544E0FF9000D430
:10541000D6E0C39F500301549C122348C26005EF9D
:10542000640970449000DB98E060079000EA16E0A1
:1054300070369000625CE060101200048A1223470C
:10544000CA74011220558780079000EA16E0607741
:10545000C2AF9000625A740CF0A37480F0D2AF9087
:1054600000D5427401F0805FC2AFE49000625AF050
:10547000A3F0D2AF9000DB98E0600E9000EA16E057
:1054800060079000DB987402F09000D53EE0900039
:10549000D4E6F09000D5427402F0802B122348C06D
:1054A0006005EF640970149000612AE09000625A70
:1054B000600D7401F0A3742CF0800A9000625AE42D
:1054C000F0A374C8F0D2AFE49000D4DAF080439037
:1054D00000D542E0FF7E006401701AC2AF9000D296
:1054E0005DE004F09000C51FE0FD9000D4D6E02DF3
:1054F000F0D2AF801DEF64024E70179000D4D6F04A
:105500009000D25DF0800B122055B09000C5207441
:10551000FFF09000C520E0FF22FD9000C51AE034A6
:1055200000FC7AC57B21122752259000D4DCE0FED6
:10553000A3E0F5828E83759300E0FEA3E0FF22FCDA
:105540007AC57B21122752259000D4DCE0FEA3E02F
:10555000F5828E83759300E0FEA3E0FF22122752AE
:10556000259000D4DCE0FEA3E0F5828E83759300E5
:10557000E0FEA3E0FF22F09000C526E0FCA3E0FDE2
:105580007F071200045122F09000C523E0FCA3E045
:10559000FD7F0712000451221200048A9000C524E6
:1055A000EEF0A3223400FC7AC57B2212275225227A
:1055B000E4FF1222864EE49000D9F7F0227C00121C
:1055C000275225229000C544EEF0A3EFF01220BE32
:1055D000C4E0FEA3E064204E70339000DB18E0606E
:1055E000030161F11220627C1220BEDC7005FE7F97
:1055F000A080047E007F287D067C0012000F9DABFA
:1056000007AA06122062597401F00161F11220BE4E
:10561000BCE0FEA3E064374E701390011D80E0549F
:10562000EFF0E054BFF01220627C0161F11220BE65
:10563000BC1220C6C8600301572F1220C700700398
:105640000156F39000DB18E0640670101220C14F81
:10565000FE1220BF7A1227815C0156F31220C6D8B1
:1056600070221220C0E11220BF7A1227815C122022
:10567000628E1220C7AB1220BFDF122786C712200E
:10568000C0D680739000DB181220C3F77009122077
:10569000C1737407F08060ED64084C70091220C17A
:1056A000737408F080519000DB18E0FD7C00640901
:1056B00070091220C1737406F0803CED64024C70D6
:1056C0000A1220C0571220C4D6802C9000DB18E0AC
:1056D000FD7C00640370061220C08B801AED640408
:1056E0004C70091220C1737402F0800B9000DB989B
:1056F000E060041220628E9000624EE06403700E3F
:10570000122062677B287A00E4FD7F1A80159000E2
:10571000624EE064017011122062677B287A00E417
:10572000FD7F19FE120004FC1220C5930161F112E5
:1057300020C1BF1220BEC4E0FCA3E0642F4C701354
:105740001220BEEA24061220BECBE0FF122787A358
:105750000161F11220BEBCE0FEA3E064334E704E46
:105760009000C5441220BFD175930024071220BEBB
:10577000CBE0FE1220BF8724081220BECBE07C00C5
:105780002400FFEC3EFE9000C546F0A3EFF0900031
:10579000DBA0E0FCA3E0FD9000D56DECF0A3EDF004
:1057A000C3EF9DFFEE9CA3F0A3EFF0015C911220EC
:1057B000C1BF1220BEC4E0FCA3E064344C6003010E
:1057C0005C719000C546F0A31220BEE924061220A9
:1057D000BECBE06003015BDB9000D9EEE07002A37A
:1057E000E060030162589000E9C21220C1B190004C
:1057F000D9ECE09FFF9000D9EBE09E9000C54BF004
:10580000A3EFF09000DB27E0FEA3E0FF9000C54D82
:10581000EEF0A3EFF09000EA14E0FCA3E0FDC3EF8C
:105820009DFFEE9C9000C54DF0A3EFF09000C54B9E
:105830001220C1B1EE64809480400A7DE27C0412A3
:10584000000F9D801A9000C54B1220C1B1E49FFF4C
:10585000E49EFE7DE27C0412000F9D12000CE1AB81
:1058600007AA06A905A8049000C54DE0FEA3E0FF25
:10587000EE3395E0FDFC12000B75A312000DB59000
:1058800000EA12E0FEA3E0FFE4FCFD1220BF3CC0F2
:1058900006C0079000EA18E0FEA3E0FBAA06E4F9C0
:1058A000F8D007D00612000B821220BF3CEC3390D8
:1058B00000C553401E1220BEF41220C496C006C07C
:1058C000071220BF441220C646D007D0061200059A
:1058D000C8803812000D7412000CE19000C55312FC
:1058E000000DB59000C5531220BEF41220C496C01E
:1058F00006C0071220BF441220C646D007D00612A9
:105900000005C81220BF3C12000CE19000C55312E4
:10591000000DB51220C0AE9000C55312000D9C12B0
:10592000000B751220C0A6EC4D4E4F70030159EBD1
:10593000EC3340099000C5477401F080171220C075
:10594000AE12000CE19000C54F12000DB59000C5DD
:10595000477402F09000C54A742C1220C5BE701125
:105960009000DA7BE054C064C070209000C54A808B
:1059700017EF64024E70149000D51EE09000C54AE7
:1059800030E005742CF080037430F09000C54AE0DC
:1059900064309000C54F701E1220C0981220C4962B
:1059A000C006C0071220C0AEAD07AC06D007D006B7
:1059B0007B8D7A20801C1220C0981220C496C006CD
:1059C000C0071220C0AEAD07AC06D007D0067B6E74
:1059D0007A23120005C8EE1220C7CAEFF09000C566
:1059E00048E475F00112000B0980051220C607F08B
:1059F0009000DA91E07003015BFC9000E9DF122077
:105A0000C1B19000E9D7E09FFF9000E9D6E09E90F9
:105A100000C557F0A3EFF09000C547E06401701394
:105A2000A3E0FEA3E0FF9000C557EE8FF012000B3D
:105A30000980121220C1AD9000C558E09FF090007F
:105A4000C557E09EF09000C5571220C1B1EE6480AA
:105A500094809000C547500C7402F0C3E49FFFE4AB
:105A60009EA380107401F09000C557E0FFA3E09062
:105A700000C548CFF0A3EFF0C39000C549E0940300
:105A80009000C548E09400500BE4F0A3F09000D9DA
:105A9000E4F080299000D9E4E004F09000DB98E085
:105AA000FF701A9000D9E4E02FFFE433FEC3EF94B7
:105AB00003EE6480948050051220C607F09000C564
:105AC000481220C25C6006E49000D9E4F0E4900043
:105AD000C559F01220C41E701BD3EF94E8EE940356
